{
  "contractName": "wallet",
  "abi": [
    {
      "inputs": [
        {
          "internalType": "address",
          "name": "",
          "type": "address"
        },
        {
          "internalType": "bytes32",
          "name": "",
          "type": "bytes32"
        }
      ],
      "name": "balances",
      "outputs": [
        {
          "internalType": "uint256",
          "name": "",
          "type": "uint256"
        }
      ],
      "stateMutability": "view",
      "type": "function",
      "constant": true
    },
    {
      "inputs": [
        {
          "internalType": "uint256",
          "name": "",
          "type": "uint256"
        }
      ],
      "name": "tokenList",
      "outputs": [
        {
          "internalType": "bytes32",
          "name": "",
          "type": "bytes32"
        }
      ],
      "stateMutability": "view",
      "type": "function",
      "constant": true
    },
    {
      "inputs": [
        {
          "internalType": "bytes32",
          "name": "",
          "type": "bytes32"
        }
      ],
      "name": "tokenMapping",
      "outputs": [
        {
          "internalType": "bytes32",
          "name": "ticker",
          "type": "bytes32"
        },
        {
          "internalType": "address",
          "name": "tokenAddress",
          "type": "address"
        }
      ],
      "stateMutability": "view",
      "type": "function",
      "constant": true
    },
    {
      "inputs": [
        {
          "internalType": "bytes32",
          "name": "ticker",
          "type": "bytes32"
        },
        {
          "internalType": "address",
          "name": "tokenAddress",
          "type": "address"
        }
      ],
      "name": "addToken",
      "outputs": [],
      "stateMutability": "nonpayable",
      "type": "function"
    },
    {
      "inputs": [
        {
          "internalType": "uint256",
          "name": "amount",
          "type": "uint256"
        },
        {
          "internalType": "bytes32",
          "name": "ticker",
          "type": "bytes32"
        }
      ],
      "name": "deposit",
      "outputs": [],
      "stateMutability": "nonpayable",
      "type": "function"
    },
    {
      "inputs": [
        {
          "internalType": "uint256",
          "name": "amount",
          "type": "uint256"
        },
        {
          "internalType": "bytes32",
          "name": "ticker",
          "type": "bytes32"
        }
      ],
      "name": "withdrawl",
      "outputs": [],
      "stateMutability": "nonpayable",
      "type": "function"
    }
  ],
  "bytecode": "0x608060405234801561001057600080fd5b5061064a806100206000396000f3fe608060405234801561001057600080fd5b50600436106100625760003560e01c80631f14df6914610067578063667cb4ba1461009057806380537243146100b15780639776aacf146100c65780639ead7222146100d9578063c9630cb0146100ec575b600080fd5b61007a61007536600461045e565b6100ff565b6040516100879190610548565b60405180910390f35b6100a361009e3660046104a7565b61011c565b604051610087929190610551565b6100c46100bf3660046104ea565b61013e565b005b6100c46100d43660046104bf565b610293565b61007a6100e73660046104a7565b61030e565b6100c46100fa3660046104ea565b61032f565b600260209081526000928352604080842090915290825290205481565b600160208190526000918252604090912080549101546001600160a01b031682565b600081815260016020819052604090912001546001600160a01b031661017f5760405162461bcd60e51b815260040161017690610598565b60405180910390fd5b3360009081526002602090815260408083208484529091529020548211156101b95760405162461bcd60e51b815260040161017690610568565b6000818152600160208190526040918290200154905163a9059cbb60e01b81526001600160a01b039091169063a9059cbb906101fb903390869060040161052f565b602060405180830381600087803b15801561021557600080fd5b505af1158015610229573d6000803e3d6000fd5b505050506040513d601f19601f8201168201806040525081019061024d9190610487565b503360009081526002602090815260408083208484529091529020546102739083610423565b336000908152600260209081526040808320948352939052919091205550565b6040805180820182528381526001600160a01b039283166020808301918252600086815260019182905293842092518355905191810180546001600160a01b03191692909416919091179092558054918201815580527f290decd9548b62a8d60345a988386fc84ba6bc95484008f6362f93160ef3e5630155565b6000818154811061031e57600080fd5b600091825260209091200154905081565b600081815260016020819052604090912001546001600160a01b03166103675760405162461bcd60e51b815260040161017690610598565b600081815260016020819052604091829020015490516323b872dd60e01b81526001600160a01b03909116906323b872dd906103ab9033903090879060040161050b565b602060405180830381600087803b1580156103c557600080fd5b505af11580156103d9573d6000803e3d6000fd5b505050506040513d601f19601f820116820180604052508101906103fd9190610487565b503360009081526002602090815260408083208484529091529020546102739083610436565b600061042f82846105e7565b9392505050565b600061042f82846105cf565b80356001600160a01b038116811461045957600080fd5b919050565b60008060408385031215610470578182fd5b61047983610442565b946020939093013593505050565b600060208284031215610498578081fd5b8151801515811461042f578182fd5b6000602082840312156104b8578081fd5b5035919050565b600080604083850312156104d1578182fd5b823591506104e160208401610442565b90509250929050565b600080604083850312156104fc578182fd5b50508035926020909101359150565b6001600160a01b039384168152919092166020820152604081019190915260600190565b6001600160a01b03929092168252602082015260400190565b90815260200190565b9182526001600160a01b0316602082015260400190565b60208082526016908201527510985b185b98d9481b9bdd081cdd59999a58da595b9d60521b604082015260600190565b6020808252601a908201527f74686520746f6b656e206973206e6f7420737570706f72746564000000000000604082015260600190565b600082198211156105e2576105e26105fe565b500190565b6000828210156105f9576105f96105fe565b500390565b634e487b7160e01b600052601160045260246000fdfea26469706673582212200206c5068533d0c7156cdc8617bf5fca04724f3bdd403150306aa8b820ef7cdd64736f6c63430008000033",
  "immutableReferences": {},
  "source": "pragma solidity ^0.8.0;\r\n\r\nimport \"../node_modules/@openzeppelin/contracts/token/ERC20/IERC20.sol\";\r\nimport \"../node_modules/@openzeppelin/contracts/utils/math/SafeMath.sol\";\r\n\r\ncontract wallet{\r\n    using SafeMath for uint256;\r\n\r\nstruct Token {\r\n    bytes32 ticker;\r\n    address tokenAddress;\r\n}\r\n\r\nbytes32[] public tokenList;\r\nmapping(bytes32 => Token) public tokenMapping;\r\n\r\nmapping(address => mapping(bytes32 => uint256)) public balances;\r\n\r\nfunction addToken (bytes32 ticker, address tokenAddress) external {\r\n    tokenMapping[ticker] = Token(ticker, tokenAddress);\r\n    tokenList.push(ticker);    \r\n}\r\n\r\nfunction deposit(uint amount, bytes32 ticker) external {\r\n    require (tokenMapping[ticker].tokenAddress != address(0),\"the token is not supported\");\r\n    IERC20(tokenMapping[ticker].tokenAddress).transferFrom(msg.sender, address(this), amount);\r\n    balances[msg.sender][ticker] = balances[msg.sender][ticker].add(amount);  \r\n}\r\n\r\nfunction withdrawl(uint amount, bytes32 ticker) external {\r\n    require (tokenMapping[ticker].tokenAddress != address(0),\"the token is not supported\");\r\n    require (balances[msg.sender][ticker] >=amount, \"Balance not sufficient\");\r\n    IERC20(tokenMapping[ticker].tokenAddress).transfer(msg.sender, amount);\r\n    balances[msg.sender][ticker] = balances[msg.sender][ticker].sub(amount);\r\n}\r\n\r\n}",
  "sourcePath": "C:\\Users\\k_suh\\OneDrive\\Desktop\\DEXCHANGE\\contracts\\wallet.sol",
  "compiler": {
    "name": "solc",
    "version": "0.8.0+commit.c7dfd78e.Emscripten.clang"
  },
  "schemaVersion": "3.4.11",
  "updatedAt": "2023-04-24T19:52:24.946Z",
  "networkType": "ethereum",
  "devdoc": {
    "kind": "dev",
    "methods": {},
    "version": 1
  },
  "userdoc": {
    "kind": "user",
    "methods": {},
    "version": 1
  }
}